:020000040000FA
:0800000000008A110A12EE282B
:08000800F0000308F1000A08F2
:10001000F20072088A0071088300F00E700E090069
:10002000831203138030A2002220080083120313DE
:10003000C030A20022200800E4200314992083127B
:1000400003130800E420031099200800831203130F
:100050008501831603138510051185110E30831653
:1000600003139F00FF3083120313A000FF3083129D
:100070000313A100E920A00B39283030A20003109F
:100080007520FF30A000FF30A100E920A00B44281C
:100090003030A20003107520FF30A100E920183095
:1000A000A20003107520FF30A100E9202030A2003B
:1000B00003107520E420831203132830A2002220AD
:1000C000831203130D30A200222083120313013088
:1000D000A20022200630A2008312031322208312E2
:1000E00003138030A20022200800031C851103188E
:1000F000851505118316031308108810081188113F
:1001000000000000831203138514A21F8811A21B94
:100110008815221F0811221B0815A21E8810A21A7A
:100120008814221E0810221A0814000000008510EE
:100130000800752083120313A20E75208312031387
:10014000A20E0800831603130814881408158815D6
:1001500083120313031C8511031885150515000070
:10016000000085140000000000000000881DA3139B
:100170008819A317081D231308192317881CA31215
:100180008818A316081C23120818231685100000CF
:1001900000000000000000000000000000008514C6
:1001A00000000000881DA3118819A315081D231144
:1001B00008192315881CA3108818A314081C2310E1
:1001C00008182314851008000310A220A31BE4289C
:0801D0000800A10BE92808005A
:0401D80000340034BB
:0401DC00073083164F
:1001E00003139F008A110A12262083120313013081
:1001F000A2008A110A1222208A110A1297218A115A
:100200000A12831203138701071E0F29871E0F2965
:10021000071F0F29871F0F298A110A12FF2883122F
:100220000313003087000708F039F3008316031327
:100230000E308700831203130030870007080E3941
:10024000F3040310F30C83120313A6018A110A129C
:10025000731B2D298A110A1252298A110A12F31AC4
:100260003829043083120313A6048A110A12522972
:100270008A110A12731A4329083083120313A60441
:100280008A110A1252298A110A12F3194E290C30C6
:1002900083120313A6048A110A12522910308A11FC
:1002A0000A1268298A110A12731959298A110A1225
:1002B00068298A110A12F318642901308312031382
:1002C000A6048A110A126829023083120313A604B5
:1002D0008312031326088A110A12B0218312031312
:1002E000A5000311803C8A110A1203198A2983127E
:1002F0000313250883120313A2008A110A121C207B
:10030000831203131030A2008A110A1222208A11CC
:100310000A128A2983120313A501F3018A110A1212
:10032000A0218A110A1297218A110A12FF28831626
:100330000313F03087008312031300308700080096
:100340008A110A129721831203138A110A12071EB7
:10035000A029871EA029071FA029871FA029080000
:1003600083120313260801308A00BA3026070318C7
:100370008A0A8200313432343334803434343534B0
:100380003634803437343834393480342A34303495
:06039000233480348034A8
:02400E003A3F37
:00000001FF
